{
  "contractName": "Jonbur",
  "abi": [
    {
      "constant": true,
      "inputs": [],
      "name": "owner",
      "outputs": [
        {
          "name": "",
          "type": "address"
        }
      ],
      "payable": false,
      "stateMutability": "view",
      "type": "function"
    },
    {
      "constant": true,
      "inputs": [],
      "name": "lastIndex",
      "outputs": [
        {
          "name": "",
          "type": "uint256"
        }
      ],
      "payable": false,
      "stateMutability": "view",
      "type": "function"
    },
    {
      "inputs": [],
      "payable": false,
      "stateMutability": "nonpayable",
      "type": "constructor"
    },
    {
      "anonymous": false,
      "inputs": [
        {
          "indexed": false,
          "name": "_addr",
          "type": "address"
        },
        {
          "indexed": false,
          "name": "_comment",
          "type": "string"
        }
      ],
      "name": "NewHodl",
      "type": "event"
    },
    {
      "anonymous": false,
      "inputs": [
        {
          "indexed": false,
          "name": "_addr",
          "type": "address"
        }
      ],
      "name": "DoneHodl",
      "type": "event"
    },
    {
      "constant": true,
      "inputs": [],
      "name": "getHodlIndex",
      "outputs": [
        {
          "name": "",
          "type": "uint256[]"
        }
      ],
      "payable": false,
      "stateMutability": "view",
      "type": "function"
    },
    {
      "constant": true,
      "inputs": [
        {
          "name": "_index",
          "type": "uint256"
        }
      ],
      "name": "getHodl",
      "outputs": [
        {
          "name": "",
          "type": "uint256"
        },
        {
          "name": "",
          "type": "uint256"
        },
        {
          "name": "",
          "type": "uint256"
        },
        {
          "name": "",
          "type": "uint256"
        },
        {
          "name": "",
          "type": "uint256"
        },
        {
          "name": "",
          "type": "bool"
        }
      ],
      "payable": false,
      "stateMutability": "view",
      "type": "function"
    },
    {
      "constant": true,
      "inputs": [
        {
          "name": "_index",
          "type": "uint256"
        }
      ],
      "name": "getComment",
      "outputs": [
        {
          "name": "",
          "type": "string"
        }
      ],
      "payable": false,
      "stateMutability": "view",
      "type": "function"
    },
    {
      "constant": true,
      "inputs": [],
      "name": "getSum",
      "outputs": [
        {
          "name": "",
          "type": "uint256"
        }
      ],
      "payable": false,
      "stateMutability": "view",
      "type": "function"
    },
    {
      "constant": false,
      "inputs": [
        {
          "name": "_dueDate",
          "type": "uint256"
        },
        {
          "name": "_ethusd",
          "type": "uint256"
        },
        {
          "name": "_comment",
          "type": "string"
        }
      ],
      "name": "deposit",
      "outputs": [],
      "payable": true,
      "stateMutability": "payable",
      "type": "function"
    },
    {
      "constant": false,
      "inputs": [
        {
          "name": "_index",
          "type": "uint256"
        }
      ],
      "name": "withdraw",
      "outputs": [],
      "payable": false,
      "stateMutability": "nonpayable",
      "type": "function"
    }
  ],
  "bytecode": "0x608060405234801561001057600080fd5b50336000806101000a81548173ffffffffffffffffffffffffffffffffffffffff021916908373ffffffffffffffffffffffffffffffffffffffff160217905550610d09806100606000396000f3fe60806040526004361061008e576000357c0100000000000000000000000000000000000000000000000000000000900463ffffffff1680630800e300146100935780632e1a7d4d14610147578063569c5f6d1461018257806374d337e6146101ad5780638da5cb5b14610223578063ddde808d1461027a578063f3f6f0d7146102e6578063fca32ac314610311575b600080fd5b34801561009f57600080fd5b506100cc600480360360208110156100b657600080fd5b81019080803590602001909291905050506103e0565b6040518080602001828103825283818151815260200191508051906020019080838360005b8381101561010c5780820151818401526020810190506100f1565b50505050905090810190601f1680156101395780820380516001836020036101000a031916815260200191505b509250505060405180910390f35b34801561015357600080fd5b506101806004803603602081101561016a57600080fd5b8101908080359060200190929190505050610498565b005b34801561018e57600080fd5b5061019761080e565b6040518082815260200191505060405180910390f35b3480156101b957600080fd5b506101e6600480360360208110156101d057600080fd5b8101908080359060200190929190505050610855565b6040518087815260200186815260200185815260200184815260200183815260200182151515158152602001965050505050505060405180910390f35b34801561022f57600080fd5b506102386108b6565b604051808273ffffffffffffffffffffffffffffffffffffffff1673ffffffffffffffffffffffffffffffffffffffff16815260200191505060405180910390f35b34801561028657600080fd5b5061028f6108db565b6040518080602001828103825283818151815260200191508051906020019060200280838360005b838110156102d25780820151818401526020810190506102b7565b505050509050019250505060405180910390f35b3480156102f257600080fd5b506102fb610970565b6040518082815260200191505060405180910390f35b6103de6004803603606081101561032757600080fd5b8101908080359060200190929190803590602001909291908035906020019064010000000081111561035857600080fd5b82018360208201111561036a57600080fd5b8035906020019184600183028401116401000000008311171561038c57600080fd5b91908080601f016020809104026020016040519081016040528093929190818152602001838380828437600081840152601f19601f820116905080830192505050505050509192919290505050610976565b005b6060600260008381526020019081526020016000206006018054600181600116156101000203166002900480601f01602080910402602001604051908101604052809291908181526020018280546001816001161561010002031660029004801561048c5780601f106104615761010080835404028352916020019161048c565b820191906000526020600020905b81548152906001019060200180831161046f57829003601f168201915b50505050509050919050565b3373ffffffffffffffffffffffffffffffffffffffff166002600083815260200190815260200160002060070160009054906101000a900473ffffffffffffffffffffffffffffffffffffffff1673ffffffffffffffffffffffffffffffffffffffff16141515610571576040517f08c379a000000000000000000000000000000000000000000000000000000000815260040180806020018281038252600d8152602001807f496e76616c6964206f776e65720000000000000000000000000000000000000081525060200191505060405180910390fd5b600015156002600083815260200190815260200160002060050160009054906101000a900460ff161515141515610610576040517f08c379a00000000000000000000000000000000000000000000000000000000081526004018080602001828103825260108152602001807f576974686472657720416c72656164790000000000000000000000000000000081525060200191505060405180910390fd5b4260026000838152602001908152602001600020600101541115151561069e576040517f08c379a00000000000000000000000000000000000000000000000000000000081526004018080602001828103825260078152602001807f4e6f74207965740000000000000000000000000000000000000000000000000081525060200191505060405180910390fd5b3373ffffffffffffffffffffffffffffffffffffffff166108fc60026000848152602001908152602001600020600301549081150290604051600060405180830381858888f193505050501580156106fa573d6000803e3d6000fd5b5042600260008381526020019081526020016000206002018190555060016002600083815260200190815260200160002060050160006101000a81548160ff0219169083151502179055506002600082815260200190815260200160002060030154600460003373ffffffffffffffffffffffffffffffffffffffff1673ffffffffffffffffffffffffffffffffffffffff168152602001908152602001600020600082825403925050819055507f9478b48b75202d226deb78ddc8879ab271a64f941d7f85fa16bae601c822994e33604051808273ffffffffffffffffffffffffffffffffffffffff1673ffffffffffffffffffffffffffffffffffffffff16815260200191505060405180910390a150565b6000600460003373ffffffffffffffffffffffffffffffffffffffff1673ffffffffffffffffffffffffffffffffffffffff16815260200190815260200160002054905090565b6000806000806000806000600260008981526020019081526020016000209050806000015481600101548260020154836003015484600401548560050160009054906101000a900460ff169650965096509650965096505091939550919395565b6000809054906101000a900473ffffffffffffffffffffffffffffffffffffffff1681565b6060600360003373ffffffffffffffffffffffffffffffffffffffff1673ffffffffffffffffffffffffffffffffffffffff16815260200190815260200160002080548060200260200160405190810160405280929190818152602001828054801561096657602002820191906000526020600020905b815481526020019060010190808311610952575b5050505050905090565b60015481565b600360003373ffffffffffffffffffffffffffffffffffffffff1673ffffffffffffffffffffffffffffffffffffffff168152602001908152602001600020600154908060018154018082558091505090600182039060005260206000200160009091929091909150555061010060405190810160405280428152602001848152602001600081526020013481526020018381526020016000151581526020018281526020013373ffffffffffffffffffffffffffffffffffffffff16815250600260006001548152602001908152602001600020600082015181600001556020820151816001015560408201518160020155606082015181600301556080820151816004015560a08201518160050160006101000a81548160ff02191690831515021790555060c0820151816006019080519060200190610ab9929190610c38565b5060e08201518160070160006101000a81548173ffffffffffffffffffffffffffffffffffffffff021916908373ffffffffffffffffffffffffffffffffffffffff16021790555090505060016000815480929190600101919050555034600460003373ffffffffffffffffffffffffffffffffffffffff1673ffffffffffffffffffffffffffffffffffffffff168152602001908152602001600020600082825401925050819055507f0d7e0dbf24cc3c6f1d9fa875038dca89f24c0e2ca4037e8428b221fd5380f23f3382604051808373ffffffffffffffffffffffffffffffffffffffff1673ffffffffffffffffffffffffffffffffffffffff16815260200180602001828103825283818151815260200191508051906020019080838360005b83811015610bf8578082015181840152602081019050610bdd565b50505050905090810190601f168015610c255780820380516001836020036101000a031916815260200191505b50935050505060405180910390a1505050565b828054600181600116156101000203166002900490600052602060002090601f016020900481019282601f10610c7957805160ff1916838001178555610ca7565b82800160010185558215610ca7579182015b82811115610ca6578251825591602001919060010190610c8b565b5b509050610cb49190610cb8565b5090565b610cda91905b80821115610cd6576000816000905550600101610cbe565b5090565b9056fea165627a7a723058207884a934370f91ee2f8ecc3e8d352ddb3121a7443cbe8d3d4e32662466385c830029",
  "source": "pragma solidity ^0.5.0;\n\ncontract Jonbur{\n    struct Hodl{\n        uint depositDate;\n        uint dueDate;\n        uint withdrawDate;\n        uint depositAmount;\n        uint ethusd;\n        bool spent;\n        string comment;\n        address owner;\n    }\n    address public owner;\n    uint public lastIndex;\n    mapping(uint => Hodl) hodls;\n    mapping(address => uint[]) index;\n    mapping(address => uint) sum;\n\n    event NewHodl(address _addr, string _comment);\n    event DoneHodl(address _addr);\n    \n    constructor() public{\n        owner = msg.sender;\n    }\n    \n    function getHodlIndex() public view returns (uint[] memory){\n        return index[msg.sender];\n    }\n    \n    function getHodl(uint _index) public view returns (uint, uint, uint, uint, uint, bool){\n        Hodl storage h = hodls[_index];\n        return (h.depositDate, h.dueDate, h.withdrawDate, h.depositAmount, h.ethusd, h.spent);\n    }\n    \n    function getComment(uint _index) public view returns (string memory){\n        return hodls[_index].comment;\n    }\n\n    function getSum() public view returns (uint) {\n        return sum[msg.sender];\n    }\n    function deposit(uint _dueDate, uint _ethusd, string memory _comment) public payable {\n        index[msg.sender].push(lastIndex);\n        hodls[lastIndex] = Hodl(block.timestamp, _dueDate, 0, msg.value, _ethusd, false, _comment, msg.sender);\n        lastIndex++;\n        sum[msg.sender] += msg.value;\n        emit NewHodl(msg.sender, _comment);\n    }\n    function withdraw(uint _index) public {\n        require(hodls[_index].owner == msg.sender, \"Invalid owner\");\n        require(hodls[_index].spent == false, \"Withdrew Already\");\n        require(hodls[_index].dueDate <= block.timestamp, \"Not yet\");\n        msg.sender.transfer(hodls[_index].depositAmount);\n        hodls[_index].withdrawDate = block.timestamp;\n        hodls[_index].spent = true;\n        sum[msg.sender] -= hodls[_index].depositAmount;\n        emit DoneHodl(msg.sender);\n    }\n}",
  "sourcePath": "/Users/jshim/Documents/Jonbur/contracts/Jonbur.sol",
  "compiler": {
    "name": "solc",
    "version": "0.5.0+commit.1d4f565a.Emscripten.clang"
  },
  "schemaVersion": "3.0.9",
  "updatedAt": "2019-12-13T15:51:39.033Z",
  "devdoc": {
    "methods": {}
  },
  "userdoc": {
    "methods": {}
  }
}