{
  "contractName": "Jonbur",
  "abi": [
    {
      "constant": true,
      "inputs": [],
      "name": "owner",
      "outputs": [
        {
          "name": "",
          "type": "address"
        }
      ],
      "payable": false,
      "stateMutability": "view",
      "type": "function"
    },
    {
      "constant": true,
      "inputs": [],
      "name": "lastIndex",
      "outputs": [
        {
          "name": "",
          "type": "uint256"
        }
      ],
      "payable": false,
      "stateMutability": "view",
      "type": "function"
    },
    {
      "inputs": [],
      "payable": false,
      "stateMutability": "nonpayable",
      "type": "constructor"
    },
    {
      "anonymous": false,
      "inputs": [
        {
          "indexed": false,
          "name": "_addr",
          "type": "address"
        },
        {
          "indexed": false,
          "name": "_comment",
          "type": "string"
        }
      ],
      "name": "NewHodl",
      "type": "event"
    },
    {
      "anonymous": false,
      "inputs": [
        {
          "indexed": false,
          "name": "_addr",
          "type": "address"
        }
      ],
      "name": "DoneHodl",
      "type": "event"
    },
    {
      "constant": true,
      "inputs": [],
      "name": "getHodlIndex",
      "outputs": [
        {
          "name": "",
          "type": "uint256[]"
        }
      ],
      "payable": false,
      "stateMutability": "view",
      "type": "function"
    },
    {
      "constant": true,
      "inputs": [
        {
          "name": "_index",
          "type": "uint256"
        }
      ],
      "name": "getHodl",
      "outputs": [
        {
          "name": "",
          "type": "uint256"
        },
        {
          "name": "",
          "type": "uint256"
        },
        {
          "name": "",
          "type": "uint256"
        },
        {
          "name": "",
          "type": "uint256"
        },
        {
          "name": "",
          "type": "bool"
        }
      ],
      "payable": false,
      "stateMutability": "view",
      "type": "function"
    },
    {
      "constant": true,
      "inputs": [
        {
          "name": "_index",
          "type": "uint256"
        }
      ],
      "name": "getComment",
      "outputs": [
        {
          "name": "",
          "type": "string"
        }
      ],
      "payable": false,
      "stateMutability": "view",
      "type": "function"
    },
    {
      "constant": true,
      "inputs": [],
      "name": "getSum",
      "outputs": [
        {
          "name": "",
          "type": "uint256"
        }
      ],
      "payable": false,
      "stateMutability": "view",
      "type": "function"
    },
    {
      "constant": false,
      "inputs": [
        {
          "name": "_depositDate",
          "type": "uint256"
        },
        {
          "name": "_ethusd",
          "type": "uint256"
        },
        {
          "name": "_comment",
          "type": "string"
        }
      ],
      "name": "deposit",
      "outputs": [],
      "payable": true,
      "stateMutability": "payable",
      "type": "function"
    },
    {
      "constant": false,
      "inputs": [
        {
          "name": "_index",
          "type": "uint256"
        }
      ],
      "name": "withdraw",
      "outputs": [],
      "payable": false,
      "stateMutability": "nonpayable",
      "type": "function"
    }
  ],
  "bytecode": "0x608060405234801561001057600080fd5b50336000806101000a81548173ffffffffffffffffffffffffffffffffffffffff021916908373ffffffffffffffffffffffffffffffffffffffff160217905550610cce806100606000396000f3fe60806040526004361061007b5760003560e01c80638da5cb5b1161004e5780638da5cb5b14610209578063ddde808d14610260578063f3f6f0d7146102cc578063fca32ac3146102f75761007b565b80630800e300146100805780632e1a7d4d14610134578063569c5f6d1461016f57806374d337e61461019a575b600080fd5b34801561008c57600080fd5b506100b9600480360360208110156100a357600080fd5b81019080803590602001909291905050506103c6565b6040518080602001828103825283818151815260200191508051906020019080838360005b838110156100f95780820151818401526020810190506100de565b50505050905090810190601f1680156101265780820380516001836020036101000a031916815260200191505b509250505060405180910390f35b34801561014057600080fd5b5061016d6004803603602081101561015757600080fd5b810190808035906020019092919050505061047e565b005b34801561017b57600080fd5b506101846107ee565b6040518082815260200191505060405180910390f35b3480156101a657600080fd5b506101d3600480360360208110156101bd57600080fd5b8101908080359060200190929190505050610835565b60405180868152602001858152602001848152602001838152602001821515151581526020019550505050505060405180910390f35b34801561021557600080fd5b5061021e61088d565b604051808273ffffffffffffffffffffffffffffffffffffffff1673ffffffffffffffffffffffffffffffffffffffff16815260200191505060405180910390f35b34801561026c57600080fd5b506102756108b2565b6040518080602001828103825283818151815260200191508051906020019060200280838360005b838110156102b857808201518184015260208101905061029d565b505050509050019250505060405180910390f35b3480156102d857600080fd5b506102e1610947565b6040518082815260200191505060405180910390f35b6103c46004803603606081101561030d57600080fd5b8101908080359060200190929190803590602001909291908035906020019064010000000081111561033e57600080fd5b82018360208201111561035057600080fd5b8035906020019184600183028401116401000000008311171561037257600080fd5b91908080601f016020809104026020016040519081016040528093929190818152602001838380828437600081840152601f19601f82011690508083019250505050505050919291929050505061094d565b005b6060600260008381526020019081526020016000206005018054600181600116156101000203166002900480601f0160208091040260200160405190810160405280929190818152602001828054600181600116156101000203166002900480156104725780601f1061044757610100808354040283529160200191610472565b820191906000526020600020905b81548152906001019060200180831161045557829003601f168201915b50505050509050919050565b3373ffffffffffffffffffffffffffffffffffffffff166002600083815260200190815260200160002060060160009054906101000a900473ffffffffffffffffffffffffffffffffffffffff1673ffffffffffffffffffffffffffffffffffffffff1614610555576040517f08c379a000000000000000000000000000000000000000000000000000000000815260040180806020018281038252600d8152602001807f496e76616c6964206f776e65720000000000000000000000000000000000000081525060200191505060405180910390fd5b600015156002600083815260200190815260200160002060040160009054906101000a900460ff161515146105f2576040517f08c379a00000000000000000000000000000000000000000000000000000000081526004018080602001828103825260108152602001807f576974686472657720416c72656164790000000000000000000000000000000081525060200191505060405180910390fd5b426002600083815260200190815260200160002060000154111561067e576040517f08c379a00000000000000000000000000000000000000000000000000000000081526004018080602001828103825260078152602001807f4e6f74207965740000000000000000000000000000000000000000000000000081525060200191505060405180910390fd5b3373ffffffffffffffffffffffffffffffffffffffff166108fc60026000848152602001908152602001600020600201549081150290604051600060405180830381858888f193505050501580156106da573d6000803e3d6000fd5b5042600260008381526020019081526020016000206001018190555060016002600083815260200190815260200160002060040160006101000a81548160ff0219169083151502179055506002600082815260200190815260200160002060020154600460003373ffffffffffffffffffffffffffffffffffffffff1673ffffffffffffffffffffffffffffffffffffffff168152602001908152602001600020600082825403925050819055507f9478b48b75202d226deb78ddc8879ab271a64f941d7f85fa16bae601c822994e33604051808273ffffffffffffffffffffffffffffffffffffffff1673ffffffffffffffffffffffffffffffffffffffff16815260200191505060405180910390a150565b6000600460003373ffffffffffffffffffffffffffffffffffffffff1673ffffffffffffffffffffffffffffffffffffffff16815260200190815260200160002054905090565b60008060008060008060026000888152602001908152602001600020905080600001548160010154826002015483600301548460040160009054906101000a900460ff16955095509550955095505091939590929450565b6000809054906101000a900473ffffffffffffffffffffffffffffffffffffffff1681565b6060600360003373ffffffffffffffffffffffffffffffffffffffff1673ffffffffffffffffffffffffffffffffffffffff16815260200190815260200160002080548060200260200160405190810160405280929190818152602001828054801561093d57602002820191906000526020600020905b815481526020019060010190808311610929575b5050505050905090565b60015481565b600360003373ffffffffffffffffffffffffffffffffffffffff1673ffffffffffffffffffffffffffffffffffffffff16815260200190815260200160002060015490806001815401808255809150509060018203906000526020600020016000909192909190915055506040518060e00160405280848152602001600081526020013481526020018381526020016000151581526020018281526020013373ffffffffffffffffffffffffffffffffffffffff168152506002600060015481526020019081526020016000206000820151816000015560208201518160010155604082015181600201556060820151816003015560808201518160040160006101000a81548160ff02191690831515021790555060a0820151816005019080519060200190610a7e929190610bfd565b5060c08201518160060160006101000a81548173ffffffffffffffffffffffffffffffffffffffff021916908373ffffffffffffffffffffffffffffffffffffffff16021790555090505060016000815480929190600101919050555034600460003373ffffffffffffffffffffffffffffffffffffffff1673ffffffffffffffffffffffffffffffffffffffff168152602001908152602001600020600082825401925050819055507f0d7e0dbf24cc3c6f1d9fa875038dca89f24c0e2ca4037e8428b221fd5380f23f3382604051808373ffffffffffffffffffffffffffffffffffffffff1673ffffffffffffffffffffffffffffffffffffffff16815260200180602001828103825283818151815260200191508051906020019080838360005b83811015610bbd578082015181840152602081019050610ba2565b50505050905090810190601f168015610bea5780820380516001836020036101000a031916815260200191505b50935050505060405180910390a1505050565b828054600181600116156101000203166002900490600052602060002090601f016020900481019282601f10610c3e57805160ff1916838001178555610c6c565b82800160010185558215610c6c579182015b82811115610c6b578251825591602001919060010190610c50565b5b509050610c799190610c7d565b5090565b610c9f91905b80821115610c9b576000816000905550600101610c83565b5090565b9056fea165627a7a72305820cce0db5c321a366145fb7756ebe6344d89488429176cffbd6b8ac3e1e51786d00029",
  "source": "pragma solidity ^0.5.0;\n\ncontract Jonbur{\n    struct Hodl{\n        uint depositDate;\n        uint withdrawDate;\n        uint depositAmount;\n        uint ethusd;\n        bool spent;\n        string comment;\n        address owner;\n    }\n    address public owner;\n    uint public lastIndex;\n    mapping(uint => Hodl) hodls;\n    mapping(address => uint[]) index;\n    mapping(address => uint) sum;\n\n    event NewHodl(address _addr, string _comment);\n    event DoneHodl(address _addr);\n    \n    constructor() public{\n        owner = msg.sender;\n    }\n    \n    function getHodlIndex() public view returns (uint[] memory){\n        return index[msg.sender];\n    }\n    \n    function getHodl(uint _index) public view returns (uint, uint, uint, uint, bool){\n        Hodl storage h = hodls[_index];\n        return (h.depositDate, h.withdrawDate, h.depositAmount, h.ethusd, h.spent);\n    }\n    \n    function getComment(uint _index) public view returns (string memory){\n        return hodls[_index].comment;\n    }\n\n    function getSum() public view returns (uint) {\n        return sum[msg.sender];\n    }\n    \n    function deposit(uint _depositDate, uint _ethusd, string memory _comment) public payable {\n        index[msg.sender].push(lastIndex);\n        hodls[lastIndex] = Hodl(_depositDate, 0, msg.value, _ethusd, false, _comment, msg.sender);\n        lastIndex++;\n        sum[msg.sender] += msg.value;\n        emit NewHodl(msg.sender, _comment);\n    }\n    \n    function withdraw(uint _index) public {\n        require(hodls[_index].owner == msg.sender, \"Invalid owner\");\n        require(hodls[_index].spent == false, \"Withdrew Already\");\n        require(hodls[_index].depositDate <= block.timestamp, \"Not yet\");\n        msg.sender.transfer(hodls[_index].depositAmount);\n        hodls[_index].withdrawDate = block.timestamp;\n        hodls[_index].spent = true;\n        sum[msg.sender] -= hodls[_index].depositAmount;\n        emit DoneHodl(msg.sender);\n    }\n}",
  "sourcePath": "/Users/ace/Jonbur/contracts/Jonbur.sol",
  "compiler": {
    "name": "solc",
    "version": "0.5.8+commit.23d335f2.Emscripten.clang"
  },
  "schemaVersion": "3.0.11",
  "updatedAt": "2019-12-13T01:11:03.368Z",
  "devdoc": {
    "methods": {}
  },
  "userdoc": {
    "methods": {}
  }
}